{
  "contractName": "TriganDaoERC20Token",
  "abi": [
    {
      "inputs": [
        {
          "internalType": "uint256",
          "name": "initialSupply",
          "type": "uint256"
        },
        {
          "internalType": "address",
          "name": "projectTaxReceiver",
          "type": "address"
        },
        {
          "internalType": "address",
          "name": "liquidityTaxReceiver",
          "type": "address"
        },
        {
          "internalType": "address",
          "name": "marketingTaxReceiver",
          "type": "address"
        }
      ],
      "stateMutability": "nonpayable",
      "type": "constructor"
    },
    {
      "anonymous": false,
      "inputs": [
        {
          "indexed": true,
          "internalType": "address",
          "name": "owner",
          "type": "address"
        },
        {
          "indexed": true,
          "internalType": "address",
          "name": "spender",
          "type": "address"
        },
        {
          "indexed": false,
          "internalType": "uint256",
          "name": "value",
          "type": "uint256"
        }
      ],
      "name": "Approval",
      "type": "event"
    },
    {
      "anonymous": false,
      "inputs": [
        {
          "indexed": true,
          "internalType": "address",
          "name": "previousOwner",
          "type": "address"
        },
        {
          "indexed": true,
          "internalType": "address",
          "name": "newOwner",
          "type": "address"
        }
      ],
      "name": "OwnershipTransferred",
      "type": "event"
    },
    {
      "anonymous": false,
      "inputs": [
        {
          "indexed": true,
          "internalType": "address",
          "name": "from",
          "type": "address"
        },
        {
          "indexed": true,
          "internalType": "address",
          "name": "to",
          "type": "address"
        },
        {
          "indexed": false,
          "internalType": "uint256",
          "name": "value",
          "type": "uint256"
        }
      ],
      "name": "Transfer",
      "type": "event"
    },
    {
      "inputs": [
        {
          "internalType": "address",
          "name": "owner",
          "type": "address"
        },
        {
          "internalType": "address",
          "name": "spender",
          "type": "address"
        }
      ],
      "name": "allowance",
      "outputs": [
        {
          "internalType": "uint256",
          "name": "",
          "type": "uint256"
        }
      ],
      "stateMutability": "view",
      "type": "function",
      "constant": true
    },
    {
      "inputs": [
        {
          "internalType": "address",
          "name": "account",
          "type": "address"
        }
      ],
      "name": "balanceOf",
      "outputs": [
        {
          "internalType": "uint256",
          "name": "",
          "type": "uint256"
        }
      ],
      "stateMutability": "view",
      "type": "function",
      "constant": true
    },
    {
      "inputs": [],
      "name": "decimals",
      "outputs": [
        {
          "internalType": "uint8",
          "name": "",
          "type": "uint8"
        }
      ],
      "stateMutability": "view",
      "type": "function",
      "constant": true
    },
    {
      "inputs": [
        {
          "internalType": "address",
          "name": "spender",
          "type": "address"
        },
        {
          "internalType": "uint256",
          "name": "subtractedValue",
          "type": "uint256"
        }
      ],
      "name": "decreaseAllowance",
      "outputs": [
        {
          "internalType": "bool",
          "name": "",
          "type": "bool"
        }
      ],
      "stateMutability": "nonpayable",
      "type": "function"
    },
    {
      "inputs": [
        {
          "internalType": "address",
          "name": "spender",
          "type": "address"
        },
        {
          "internalType": "uint256",
          "name": "addedValue",
          "type": "uint256"
        }
      ],
      "name": "increaseAllowance",
      "outputs": [
        {
          "internalType": "bool",
          "name": "",
          "type": "bool"
        }
      ],
      "stateMutability": "nonpayable",
      "type": "function"
    },
    {
      "inputs": [],
      "name": "name",
      "outputs": [
        {
          "internalType": "string",
          "name": "",
          "type": "string"
        }
      ],
      "stateMutability": "view",
      "type": "function",
      "constant": true
    },
    {
      "inputs": [],
      "name": "owner",
      "outputs": [
        {
          "internalType": "address",
          "name": "",
          "type": "address"
        }
      ],
      "stateMutability": "view",
      "type": "function",
      "constant": true
    },
    {
      "inputs": [],
      "name": "renounceOwnership",
      "outputs": [],
      "stateMutability": "nonpayable",
      "type": "function"
    },
    {
      "inputs": [],
      "name": "symbol",
      "outputs": [
        {
          "internalType": "string",
          "name": "",
          "type": "string"
        }
      ],
      "stateMutability": "view",
      "type": "function",
      "constant": true
    },
    {
      "inputs": [],
      "name": "totalSupply",
      "outputs": [
        {
          "internalType": "uint256",
          "name": "",
          "type": "uint256"
        }
      ],
      "stateMutability": "view",
      "type": "function",
      "constant": true
    },
    {
      "inputs": [
        {
          "internalType": "address",
          "name": "recipient",
          "type": "address"
        },
        {
          "internalType": "uint256",
          "name": "amount",
          "type": "uint256"
        }
      ],
      "name": "transfer",
      "outputs": [
        {
          "internalType": "bool",
          "name": "",
          "type": "bool"
        }
      ],
      "stateMutability": "nonpayable",
      "type": "function"
    },
    {
      "inputs": [
        {
          "internalType": "address",
          "name": "sender",
          "type": "address"
        },
        {
          "internalType": "address",
          "name": "recipient",
          "type": "address"
        },
        {
          "internalType": "uint256",
          "name": "amount",
          "type": "uint256"
        }
      ],
      "name": "transferFrom",
      "outputs": [
        {
          "internalType": "bool",
          "name": "",
          "type": "bool"
        }
      ],
      "stateMutability": "nonpayable",
      "type": "function"
    },
    {
      "inputs": [
        {
          "internalType": "address",
          "name": "newOwner",
          "type": "address"
        }
      ],
      "name": "transferOwnership",
      "outputs": [],
      "stateMutability": "nonpayable",
      "type": "function"
    },
    {
      "inputs": [
        {
          "internalType": "address",
          "name": "spender",
          "type": "address"
        },
        {
          "internalType": "uint256",
          "name": "amount",
          "type": "uint256"
        }
      ],
      "name": "approve",
      "outputs": [
        {
          "internalType": "bool",
          "name": "",
          "type": "bool"
        }
      ],
      "stateMutability": "nonpayable",
      "type": "function"
    },
    {
      "inputs": [
        {
          "internalType": "address",
          "name": "addr",
          "type": "address"
        }
      ],
      "name": "setSaleAddress",
      "outputs": [],
      "stateMutability": "nonpayable",
      "type": "function"
    },
    {
      "inputs": [
        {
          "internalType": "uint256",
          "name": "amount",
          "type": "uint256"
        }
      ],
      "name": "burn",
      "outputs": [],
      "stateMutability": "nonpayable",
      "type": "function"
    },
    {
      "inputs": [],
      "name": "burnUnsold",
      "outputs": [],
      "stateMutability": "nonpayable",
      "type": "function"
    },
    {
      "inputs": [
        {
          "internalType": "uint256",
          "name": "amount",
          "type": "uint256"
        }
      ],
      "name": "add",
      "outputs": [],
      "stateMutability": "nonpayable",
      "type": "function"
    },
    {
      "inputs": [
        {
          "internalType": "uint8",
          "name": "rate",
          "type": "uint8"
        }
      ],
      "name": "setBuyerTaxRate",
      "outputs": [],
      "stateMutability": "nonpayable",
      "type": "function"
    },
    {
      "inputs": [
        {
          "internalType": "uint8",
          "name": "rate",
          "type": "uint8"
        }
      ],
      "name": "setSellerTaxRate",
      "outputs": [],
      "stateMutability": "nonpayable",
      "type": "function"
    },
    {
      "inputs": [
        {
          "internalType": "uint256",
          "name": "maxTransferFee",
          "type": "uint256"
        }
      ],
      "name": "setMaxTransferFee",
      "outputs": [],
      "stateMutability": "nonpayable",
      "type": "function"
    },
    {
      "inputs": [
        {
          "internalType": "uint8",
          "name": "transactionDecimals",
          "type": "uint8"
        }
      ],
      "name": "setDecimals",
      "outputs": [
        {
          "internalType": "bool",
          "name": "",
          "type": "bool"
        }
      ],
      "stateMutability": "nonpayable",
      "type": "function"
    },
    {
      "inputs": [],
      "name": "transactionDecimals",
      "outputs": [
        {
          "internalType": "uint8",
          "name": "",
          "type": "uint8"
        }
      ],
      "stateMutability": "view",
      "type": "function",
      "constant": true
    }
  ],
  "bytecode": "0x60806040526014600560156101000a81548160ff021916908360ff1602179055506012600560166101000a81548160ff021916908360ff1602179055506006600560176101000a81548160ff021916908360ff160217905550601c600a0a6006553480156200006d57600080fd5b506040516200309138038062003091833981810160405260808110156200009357600080fd5b81019080805190602001909291908051906020019092919080519060200190929190805190602001909291905050506040518060400160405280600c81526020017f54726967616e44414f45323000000000000000000000000000000000000000008152506040518060400160405280600381526020017f54444500000000000000000000000000000000000000000000000000000000008152508160039080519060200190620001469291906200061e565b5080600490805190602001906200015f9291906200061e565b506012600560006101000a81548160ff021916908360ff16021790555050506000620001906200038060201b60201c565b905080600560016101000a81548173ffffffffffffffffffffffffffffffffffffffff021916908373ffffffffffffffffffffffffffffffffffffffff1602179055508073ffffffffffffffffffffffffffffffffffffffff16600073ffffffffffffffffffffffffffffffffffffffff167f8be0079c531659141344cd1fd0a4f28419497f9722a3daafe3b4186f6b6457e060405160405180910390a3506200024133856200038860201b60201c565b82600760006101000a81548173ffffffffffffffffffffffffffffffffffffffff021916908373ffffffffffffffffffffffffffffffffffffffff16021790555081600860006101000a81548173ffffffffffffffffffffffffffffffffffffffff021916908373ffffffffffffffffffffffffffffffffffffffff16021790555080600960006101000a81548173ffffffffffffffffffffffffffffffffffffffff021916908373ffffffffffffffffffffffffffffffffffffffff160217905550600b620003166200056660201b60201c565b9080600181540180825580915050600190039060005260206000200160009091909190916101000a81548173ffffffffffffffffffffffffffffffffffffffff021916908373ffffffffffffffffffffffffffffffffffffffff16021790555050505050620006cd565b600033905090565b600073ffffffffffffffffffffffffffffffffffffffff168273ffffffffffffffffffffffffffffffffffffffff1614156200042c576040517f08c379a000000000000000000000000000000000000000000000000000000000815260040180806020018281038252601f8152602001807f45524332303a206d696e7420746f20746865207a65726f20616464726573730081525060200191505060405180910390fd5b62000440600083836200059060201b60201c565b6200045c816002546200059560201b62001fa81790919060201c565b600281905550620004ba816000808573ffffffffffffffffffffffffffffffffffffffff1673ffffffffffffffffffffffffffffffffffffffff168152602001908152602001600020546200059560201b62001fa81790919060201c565b6000808473ffffffffffffffffffffffffffffffffffffffff1673ffffffffffffffffffffffffffffffffffffffff168152602001908152602001600020819055508173ffffffffffffffffffffffffffffffffffffffff16600073ffffffffffffffffffffffffffffffffffffffff167fddf252ad1be2c89b69c2b068fc378daa952ba7f163c4a11628f55a4df523b3ef836040518082815260200191505060405180910390a35050565b6000600560019054906101000a900473ffffffffffffffffffffffffffffffffffffffff16905090565b505050565b60008082840190508381101562000614576040517f08c379a000000000000000000000000000000000000000000000000000000000815260040180806020018281038252601b8152602001807f536166654d6174683a206164646974696f6e206f766572666c6f77000000000081525060200191505060405180910390fd5b8091505092915050565b828054600181600116156101000203166002900490600052602060002090601f016020900481019282601f106200066157805160ff191683800117855562000692565b8280016001018555821562000692579182015b828111156200069157825182559160200191906001019062000674565b5b509050620006a19190620006a5565b5090565b620006ca91905b80821115620006c6576000816000905550600101620006ac565b5090565b90565b6129b480620006dd6000396000f3fe608060405234801561001057600080fd5b506004361061014d5760003560e01c80637a1395aa116100c3578063a9059cbb1161007c578063a9059cbb14610633578063b52a585114610699578063dd62ed3e146106a3578063e48fbedf1461071b578063f2fde38b1461073f578063f8fb491f146107835761014d565b80637a1395aa1461045857806383904d68146104a15780638da5cb5b146104cf57806395d89b4114610519578063a45149b81461059c578063a457c2d7146105cd5761014d565b8063313ce56711610115578063313ce5671461030d578063395093511461033157806342966c68146103975780636a479a2e146103c557806370a08231146103f6578063715018a61461044e5761014d565b806306fdde0314610152578063095ea7b3146101d55780631003e2d21461023b57806318160ddd1461026957806323b872dd14610287575b600080fd5b61015a6107c7565b6040518080602001828103825283818151815260200191508051906020019080838360005b8381101561019a57808201518184015260208101905061017f565b50505050905090810190601f1680156101c75780820380516001836020036101000a031916815260200191505b509250505060405180910390f35b610221600480360360408110156101eb57600080fd5b81019080803573ffffffffffffffffffffffffffffffffffffffff16906020019092919080359060200190929190505050610869565b604051808215151515815260200191505060405180910390f35b6102676004803603602081101561025157600080fd5b810190808035906020019092919050505061087d565b005b610271610939565b6040518082815260200191505060405180910390f35b6102f36004803603606081101561029d57600080fd5b81019080803573ffffffffffffffffffffffffffffffffffffffff169060200190929190803573ffffffffffffffffffffffffffffffffffffffff16906020019092919080359060200190929190505050610943565b604051808215151515815260200191505060405180910390f35b610315610a1c565b604051808260ff1660ff16815260200191505060405180910390f35b61037d6004803603604081101561034757600080fd5b81019080803573ffffffffffffffffffffffffffffffffffffffff16906020019092919080359060200190929190505050610a33565b604051808215151515815260200191505060405180910390f35b6103c3600480360360208110156103ad57600080fd5b8101908080359060200190929190505050610ae6565b005b6103f4600480360360208110156103db57600080fd5b81019080803560ff169060200190929190505050610bc4565b005b6104386004803603602081101561040c57600080fd5b81019080803573ffffffffffffffffffffffffffffffffffffffff169060200190929190505050610d73565b6040518082815260200191505060405180910390f35b610456610dbb565b005b6104876004803603602081101561046e57600080fd5b81019080803560ff169060200190929190505050610f2b565b604051808215151515815260200191505060405180910390f35b6104cd600480360360208110156104b757600080fd5b8101908080359060200190929190505050611035565b005b6104d76110ee565b604051808273ffffffffffffffffffffffffffffffffffffffff1673ffffffffffffffffffffffffffffffffffffffff16815260200191505060405180910390f35b610521611118565b6040518080602001828103825283818151815260200191508051906020019080838360005b83811015610561578082015181840152602081019050610546565b50505050905090810190601f16801561058e5780820380516001836020036101000a031916815260200191505b509250505060405180910390f35b6105cb600480360360208110156105b257600080fd5b81019080803560ff1690602001909291905050506111ba565b005b610619600480360360408110156105e357600080fd5b81019080803573ffffffffffffffffffffffffffffffffffffffff16906020019092919080359060200190929190505050611369565b604051808215151515815260200191505060405180910390f35b61067f6004803603604081101561064957600080fd5b81019080803573ffffffffffffffffffffffffffffffffffffffff16906020019092919080359060200190929190505050611436565b604051808215151515815260200191505060405180910390f35b6106a1611454565b005b610705600480360360408110156106b957600080fd5b81019080803573ffffffffffffffffffffffffffffffffffffffff169060200190929190803573ffffffffffffffffffffffffffffffffffffffff169060200190929190505050611561565b6040518082815260200191505060405180910390f35b6107236115e8565b604051808260ff1660ff16815260200191505060405180910390f35b6107816004803603602081101561075557600080fd5b81019080803573ffffffffffffffffffffffffffffffffffffffff1690602001909291905050506115ff565b005b6107c56004803603602081101561079957600080fd5b81019080803573ffffffffffffffffffffffffffffffffffffffff1690602001909291905050506117f4565b005b606060038054600181600116156101000203166002900480601f01602080910402602001604051908101604052809291908181526020018280546001816001161561010002031660029004801561085f5780601f106108345761010080835404028352916020019161085f565b820191906000526020600020905b81548152906001019060200180831161084257829003601f168201915b5050505050905090565b600061087583836118bd565b905092915050565b6108856118db565b73ffffffffffffffffffffffffffffffffffffffff166108a36110ee565b73ffffffffffffffffffffffffffffffffffffffff161461092c576040517f08c379a00000000000000000000000000000000000000000000000000000000081526004018080602001828103825260208152602001807f4f776e61626c653a2063616c6c6572206973206e6f7420746865206f776e657281525060200191505060405180910390fd5b61093633826118e3565b50565b6000600254905090565b6000610950848484611aaa565b610a118461095c6118db565b610a0c8560405180606001604052806028815260200161287f60289139600160008b73ffffffffffffffffffffffffffffffffffffffff1673ffffffffffffffffffffffffffffffffffffffff16815260200190815260200160002060006109c26118db565b73ffffffffffffffffffffffffffffffffffffffff1673ffffffffffffffffffffffffffffffffffffffff16815260200190815260200160002054611cf79092919063ffffffff16565b611db1565b600190509392505050565b6000600560009054906101000a900460ff16905090565b6000610adc610a406118db565b84610ad78560016000610a516118db565b73ffffffffffffffffffffffffffffffffffffffff1673ffffffffffffffffffffffffffffffffffffffff16815260200190815260200160002060008973ffffffffffffffffffffffffffffffffffffffff1673ffffffffffffffffffffffffffffffffffffffff16815260200190815260200160002054611fa890919063ffffffff16565b611db1565b6001905092915050565b610aee6118db565b73ffffffffffffffffffffffffffffffffffffffff16610b0c6110ee565b73ffffffffffffffffffffffffffffffffffffffff1614610b95576040517f08c379a00000000000000000000000000000000000000000000000000000000081526004018080602001828103825260208152602001807f4f776e61626c653a2063616c6c6572206973206e6f7420746865206f776e657281525060200191505060405180910390fd5b610bc1600a60009054906101000a900473ffffffffffffffffffffffffffffffffffffffff1682612030565b50565b610bcc6118db565b73ffffffffffffffffffffffffffffffffffffffff16610bea6110ee565b73ffffffffffffffffffffffffffffffffffffffff1614610c73576040517f08c379a00000000000000000000000000000000000000000000000000000000081526004018080602001828103825260208152602001807f4f776e61626c653a2063616c6c6572206973206e6f7420746865206f776e657281525060200191505060405180910390fd5b600060038260ff1681610c8257fe5b0660ff1614610cf9576040517f08c379a000000000000000000000000000000000000000000000000000000000815260040180806020018281038252601b8152602001807f72617465206d757374206265206d756c746970696573206f662033000000000081525060200191505060405180910390fd5b60648160ff1610610d55576040517f08c379a000000000000000000000000000000000000000000000000000000000815260040180806020018281038252602781526020018061280e6027913960400191505060405180910390fd5b80600560176101000a81548160ff021916908360ff16021790555050565b60008060008373ffffffffffffffffffffffffffffffffffffffff1673ffffffffffffffffffffffffffffffffffffffff168152602001908152602001600020549050919050565b610dc36118db565b73ffffffffffffffffffffffffffffffffffffffff16610de16110ee565b73ffffffffffffffffffffffffffffffffffffffff1614610e6a576040517f08c379a00000000000000000000000000000000000000000000000000000000081526004018080602001828103825260208152602001807f4f776e61626c653a2063616c6c6572206973206e6f7420746865206f776e657281525060200191505060405180910390fd5b600073ffffffffffffffffffffffffffffffffffffffff16600560019054906101000a900473ffffffffffffffffffffffffffffffffffffffff1673ffffffffffffffffffffffffffffffffffffffff167f8be0079c531659141344cd1fd0a4f28419497f9722a3daafe3b4186f6b6457e060405160405180910390a36000600560016101000a81548173ffffffffffffffffffffffffffffffffffffffff021916908373ffffffffffffffffffffffffffffffffffffffff160217905550565b6000610f356118db565b73ffffffffffffffffffffffffffffffffffffffff16610f536110ee565b73ffffffffffffffffffffffffffffffffffffffff1614610fdc576040517f08c379a00000000000000000000000000000000000000000000000000000000081526004018080602001828103825260208152602001807f4f776e61626c653a2063616c6c6572206973206e6f7420746865206f776e657281525060200191505060405180910390fd5b60008260ff16141561100d576000600560156101000a81548160ff021916908360ff16021790555060019050611030565b60128201600560156101000a81548160ff021916908360ff160217905550600190505b919050565b61103d6118db565b73ffffffffffffffffffffffffffffffffffffffff1661105b6110ee565b73ffffffffffffffffffffffffffffffffffffffff16146110e4576040517f08c379a00000000000000000000000000000000000000000000000000000000081526004018080602001828103825260208152602001807f4f776e61626c653a2063616c6c6572206973206e6f7420746865206f776e657281525060200191505060405180910390fd5b8060068190555050565b6000600560019054906101000a900473ffffffffffffffffffffffffffffffffffffffff16905090565b606060048054600181600116156101000203166002900480601f0160208091040260200160405190810160405280929190818152602001828054600181600116156101000203166002900480156111b05780601f10611185576101008083540402835291602001916111b0565b820191906000526020600020905b81548152906001019060200180831161119357829003601f168201915b5050505050905090565b6111c26118db565b73ffffffffffffffffffffffffffffffffffffffff166111e06110ee565b73ffffffffffffffffffffffffffffffffffffffff1614611269576040517f08c379a00000000000000000000000000000000000000000000000000000000081526004018080602001828103825260208152602001807f4f776e61626c653a2063616c6c6572206973206e6f7420746865206f776e657281525060200191505060405180910390fd5b600060038260ff168161127857fe5b0660ff16146112ef576040517f08c379a000000000000000000000000000000000000000000000000000000000815260040180806020018281038252601b8152602001807f72617465206d757374206265206d756c746970696573206f662033000000000081525060200191505060405180910390fd5b60648160ff161061134b576040517f08c379a000000000000000000000000000000000000000000000000000000000815260040180806020018281038252602781526020018061280e6027913960400191505060405180910390fd5b80600560166101000a81548160ff021916908360ff16021790555050565b600061142c6113766118db565b846114278560405180606001604052806025815260200161295a60259139600160006113a06118db565b73ffffffffffffffffffffffffffffffffffffffff1673ffffffffffffffffffffffffffffffffffffffff16815260200190815260200160002060008a73ffffffffffffffffffffffffffffffffffffffff1673ffffffffffffffffffffffffffffffffffffffff16815260200190815260200160002054611cf79092919063ffffffff16565b611db1565b6001905092915050565b600061144a6114436118db565b8484611aaa565b6001905092915050565b61145c6118db565b73ffffffffffffffffffffffffffffffffffffffff1661147a6110ee565b73ffffffffffffffffffffffffffffffffffffffff1614611503576040517f08c379a00000000000000000000000000000000000000000000000000000000081526004018080602001828103825260208152602001807f4f776e61626c653a2063616c6c6572206973206e6f7420746865206f776e657281525060200191505060405180910390fd5b6000611530600a60009054906101000a900473ffffffffffffffffffffffffffffffffffffffff16610d73565b905061155e600a60009054906101000a900473ffffffffffffffffffffffffffffffffffffffff1682612030565b50565b6000600160008473ffffffffffffffffffffffffffffffffffffffff1673ffffffffffffffffffffffffffffffffffffffff16815260200190815260200160002060008373ffffffffffffffffffffffffffffffffffffffff1673ffffffffffffffffffffffffffffffffffffffff16815260200190815260200160002054905092915050565b6000600560159054906101000a900460ff16905090565b6116076118db565b73ffffffffffffffffffffffffffffffffffffffff166116256110ee565b73ffffffffffffffffffffffffffffffffffffffff16146116ae576040517f08c379a00000000000000000000000000000000000000000000000000000000081526004018080602001828103825260208152602001807f4f776e61626c653a2063616c6c6572206973206e6f7420746865206f776e657281525060200191505060405180910390fd5b600073ffffffffffffffffffffffffffffffffffffffff168173ffffffffffffffffffffffffffffffffffffffff161415611734576040517f08c379a00000000000000000000000000000000000000000000000000000000081526004018080602001828103825260268152602001806127a06026913960400191505060405180910390fd5b8073ffffffffffffffffffffffffffffffffffffffff16600560019054906101000a900473ffffffffffffffffffffffffffffffffffffffff1673ffffffffffffffffffffffffffffffffffffffff167f8be0079c531659141344cd1fd0a4f28419497f9722a3daafe3b4186f6b6457e060405160405180910390a380600560016101000a81548173ffffffffffffffffffffffffffffffffffffffff021916908373ffffffffffffffffffffffffffffffffffffffff16021790555050565b80600a60006101000a81548173ffffffffffffffffffffffffffffffffffffffff021916908373ffffffffffffffffffffffffffffffffffffffff160217905550600b600a60009054906101000a900473ffffffffffffffffffffffffffffffffffffffff169080600181540180825580915050600190039060005260206000200160009091909190916101000a81548173ffffffffffffffffffffffffffffffffffffffff021916908373ffffffffffffffffffffffffffffffffffffffff16021790555050565b60006118d16118ca6118db565b8484611db1565b6001905092915050565b600033905090565b600073ffffffffffffffffffffffffffffffffffffffff168273ffffffffffffffffffffffffffffffffffffffff161415611986576040517f08c379a000000000000000000000000000000000000000000000000000000000815260040180806020018281038252601f8152602001807f45524332303a206d696e7420746f20746865207a65726f20616464726573730081525060200191505060405180910390fd5b611992600083836121f4565b6119a781600254611fa890919063ffffffff16565b6002819055506119fe816000808573ffffffffffffffffffffffffffffffffffffffff1673ffffffffffffffffffffffffffffffffffffffff16815260200190815260200160002054611fa890919063ffffffff16565b6000808473ffffffffffffffffffffffffffffffffffffffff1673ffffffffffffffffffffffffffffffffffffffff168152602001908152602001600020819055508173ffffffffffffffffffffffffffffffffffffffff16600073ffffffffffffffffffffffffffffffffffffffff167fddf252ad1be2c89b69c2b068fc378daa952ba7f163c4a11628f55a4df523b3ef836040518082815260200191505060405180910390a35050565b6000600560159054906101000a900460ff1660ff16600a0a8281611aca57fe5b0614611b21576040517f08c379a00000000000000000000000000000000000000000000000000000000081526004018080602001828103825260498152602001806128ed6049913960600191505060405180910390fd5b611b296110ee565b73ffffffffffffffffffffffffffffffffffffffff168373ffffffffffffffffffffffffffffffffffffffff161415611b6c57611b678383836121f9565b611cf2565b6000611b888483600560169054906101000a900460ff166124ba565b90506000611ba68484600560179054906101000a900460ff166124ba565b90506000611bbd8284611fa890919063ffffffff16565b9050611bd28385611fa890919063ffffffff16565b611bdb87610d73565b11611c31576040517f08c379a00000000000000000000000000000000000000000000000000000000081526004018080602001828103825260298152602001806128356029913960400191505060405180910390fd5b6000611c4760038361251190919063ffffffff16565b9050611c7687600760009054906101000a900473ffffffffffffffffffffffffffffffffffffffff16836121f9565b611ca387600860009054906101000a900473ffffffffffffffffffffffffffffffffffffffff16836121f9565b611cd087600960009054906101000a900473ffffffffffffffffffffffffffffffffffffffff16836121f9565b611ced8787611ce8868961259a90919063ffffffff16565b6121f9565b505050505b505050565b6000838311158290611da4576040517f08c379a00000000000000000000000000000000000000000000000000000000081526004018080602001828103825283818151815260200191508051906020019080838360005b83811015611d69578082015181840152602081019050611d4e565b50505050905090810190601f168015611d965780820380516001836020036101000a031916815260200191505b509250505060405180910390fd5b5082840390509392505050565b600073ffffffffffffffffffffffffffffffffffffffff168373ffffffffffffffffffffffffffffffffffffffff161415611e37576040517f08c379a00000000000000000000000000000000000000000000000000000000081526004018080602001828103825260248152602001806129366024913960400191505060405180910390fd5b600073ffffffffffffffffffffffffffffffffffffffff168273ffffffffffffffffffffffffffffffffffffffff161415611ebd576040517f08c379a00000000000000000000000000000000000000000000000000000000081526004018080602001828103825260228152602001806127c66022913960400191505060405180910390fd5b80600160008573ffffffffffffffffffffffffffffffffffffffff1673ffffffffffffffffffffffffffffffffffffffff16815260200190815260200160002060008473ffffffffffffffffffffffffffffffffffffffff1673ffffffffffffffffffffffffffffffffffffffff168152602001908152602001600020819055508173ffffffffffffffffffffffffffffffffffffffff168373ffffffffffffffffffffffffffffffffffffffff167f8c5be1e5ebec7d5bd14f71427d1e84f3dd0314c0f7b2291e5b200ac8c7c3b925836040518082815260200191505060405180910390a3505050565b600080828401905083811015612026576040517f08c379a000000000000000000000000000000000000000000000000000000000815260040180806020018281038252601b8152602001807f536166654d6174683a206164646974696f6e206f766572666c6f77000000000081525060200191505060405180910390fd5b8091505092915050565b600073ffffffffffffffffffffffffffffffffffffffff168273ffffffffffffffffffffffffffffffffffffffff1614156120b6576040517f08c379a00000000000000000000000000000000000000000000000000000000081526004018080602001828103825260218152602001806128a76021913960400191505060405180910390fd5b6120c2826000836121f4565b61212d8160405180606001604052806022815260200161277e602291396000808673ffffffffffffffffffffffffffffffffffffffff1673ffffffffffffffffffffffffffffffffffffffff16815260200190815260200160002054611cf79092919063ffffffff16565b6000808473ffffffffffffffffffffffffffffffffffffffff1673ffffffffffffffffffffffffffffffffffffffff168152602001908152602001600020819055506121848160025461259a90919063ffffffff16565b600281905550600073ffffffffffffffffffffffffffffffffffffffff168273ffffffffffffffffffffffffffffffffffffffff167fddf252ad1be2c89b69c2b068fc378daa952ba7f163c4a11628f55a4df523b3ef836040518082815260200191505060405180910390a35050565b505050565b600073ffffffffffffffffffffffffffffffffffffffff168373ffffffffffffffffffffffffffffffffffffffff16141561227f576040517f08c379a00000000000000000000000000000000000000000000000000000000081526004018080602001828103825260258152602001806128c86025913960400191505060405180910390fd5b600073ffffffffffffffffffffffffffffffffffffffff168273ffffffffffffffffffffffffffffffffffffffff161415612305576040517f08c379a000000000000000000000000000000000000000000000000000000000815260040180806020018281038252602381526020018061275b6023913960400191505060405180910390fd5b6123108383836121f4565b61237b816040518060600160405280602681526020016127e8602691396000808773ffffffffffffffffffffffffffffffffffffffff1673ffffffffffffffffffffffffffffffffffffffff16815260200190815260200160002054611cf79092919063ffffffff16565b6000808573ffffffffffffffffffffffffffffffffffffffff1673ffffffffffffffffffffffffffffffffffffffff1681526020019081526020016000208190555061240e816000808573ffffffffffffffffffffffffffffffffffffffff1673ffffffffffffffffffffffffffffffffffffffff16815260200190815260200160002054611fa890919063ffffffff16565b6000808473ffffffffffffffffffffffffffffffffffffffff1673ffffffffffffffffffffffffffffffffffffffff168152602001908152602001600020819055508173ffffffffffffffffffffffffffffffffffffffff168373ffffffffffffffffffffffffffffffffffffffff167fddf252ad1be2c89b69c2b068fc378daa952ba7f163c4a11628f55a4df523b3ef836040518082815260200191505060405180910390a3505050565b60006124c58461261d565b156124d3576000905061250a565b6125076124ff60646124f18560ff16876126bb90919063ffffffff16565b61251190919063ffffffff16565b600654612741565b90505b9392505050565b6000808211612588576040517f08c379a000000000000000000000000000000000000000000000000000000000815260040180806020018281038252601a8152602001807f536166654d6174683a206469766973696f6e206279207a65726f00000000000081525060200191505060405180910390fd5b81838161259157fe5b04905092915050565b600082821115612612576040517f08c379a000000000000000000000000000000000000000000000000000000000815260040180806020018281038252601e8152602001807f536166654d6174683a207375627472616374696f6e206f766572666c6f77000081525060200191505060405180910390fd5b818303905092915050565b6000805b600b805490508110156126b0578273ffffffffffffffffffffffffffffffffffffffff16600b828154811061265257fe5b9060005260206000200160009054906101000a900473ffffffffffffffffffffffffffffffffffffffff1673ffffffffffffffffffffffffffffffffffffffff1614156126a35760019150506126b6565b8080600101915050612621565b50600090505b919050565b6000808314156126ce576000905061273b565b60008284029050828482816126df57fe5b0414612736576040517f08c379a000000000000000000000000000000000000000000000000000000000815260040180806020018281038252602181526020018061285e6021913960400191505060405180910390fd5b809150505b92915050565b60008183106127505781612752565b825b90509291505056fe45524332303a207472616e7366657220746f20746865207a65726f206164647265737345524332303a206275726e20616d6f756e7420657863656564732062616c616e63654f776e61626c653a206e6577206f776e657220697320746865207a65726f206164647265737345524332303a20617070726f766520746f20746865207a65726f206164647265737345524332303a207472616e7366657220616d6f756e7420657863656564732062616c616e6365726174652063616e27742062652067726561746572207468616e206f7220657175616c203130305444453a20796f7520646f6e2774206861766520656e6f75676820746f6b656e7320746f2073656c6c536166654d6174683a206d756c7469706c69636174696f6e206f766572666c6f7745524332303a207472616e7366657220616d6f756e74206578636565647320616c6c6f77616e636545524332303a206275726e2066726f6d20746865207a65726f206164647265737345524332303a207472616e736665722066726f6d20746865207a65726f20616464726573735444453a20746f6b656e7320746f20627579206d757374206265206d756c7469706c6573206f66207472616e73616374696f6e20646563696d616c732e2044656661756c742031303045524332303a20617070726f76652066726f6d20746865207a65726f206164647265737345524332303a2064656372656173656420616c6c6f77616e63652062656c6f77207a65726fa2646970667358221220697eec17c8b89d91924e76998d862d56f531419b6925bc01407eac8dfb8d2cbf64736f6c63430006020033",
  "source": "pragma solidity ^0.6.0;\n\nimport \"@openzeppelin/contracts/token/ERC20/ERC20.sol\";\nimport \"@openzeppelin/contracts/math/SafeMath.sol\";\nimport \"@openzeppelin/contracts/math/Math.sol\";\nimport \"@openzeppelin/contracts/access/Ownable.sol\";\n\ncontract TriganDaoERC20Token is ERC20, Ownable {\n    using SafeMath for uint256;\n\n    uint8 internal _transactionDecimals = 20; // TKNBits multiplies of 100,\n    uint8 internal _sellerTaxPercentage = 18;\n    uint8 internal _buyerTaxPercentage = 6;\n    uint256 internal _maxTransferFee = uint256(10) ** 28; // 10,000,000,000 tokens \n    address internal _projectTaxReceiver;\n    address internal _liquidityTaxReceiver;\n    address internal _marketingTaxReceiver;\n    address internal _saleAddress;\n    address[] internal _dutiesFree;\n\n    constructor(uint256 initialSupply, address projectTaxReceiver, address liquidityTaxReceiver, address marketingTaxReceiver) public ERC20(\"TriganDAOE20\", \"TDE\") {\n        _mint(msg.sender, initialSupply);\n        _projectTaxReceiver = projectTaxReceiver;\n        _liquidityTaxReceiver = liquidityTaxReceiver;\n        _marketingTaxReceiver = marketingTaxReceiver;\n        _dutiesFree.push(owner());\n    }\n\n    /**\n     * @dev See {IERC20-approve}.\n     *\n     * Requirements:\n     *\n     * - `spender` cannot be the zero address.\n     */\n    function approve(address spender, uint256 amount) public override returns (bool) {\n        return super.approve(spender, amount);\n    }\n\n    /**\n     * @dev Moves tokens `amount` from `sender` to `recipient`.\n     *\n     * This is internal function is equivalent to {transfer}, and can be used to\n     * e.g. implement automatic token fees, slashing mechanisms, etc.\n     *\n     * Emits a {Transfer} event.\n     *\n     * Requirements:\n     *\n     * - `sender` cannot be the zero address.\n     * - `recipient` cannot be the zero address.\n     * - `sender` must have a balance of at least `amount`.\n     */\n    function _transfer(address sender, address recipient, uint256 amount) internal override {\n        require(amount % (uint256(10) ** _transactionDecimals) == 0, \"TDE: tokens to buy must be multiples of transaction decimals. Default 100\");\n\n        // at inital step, owner transfers all tokens to crowdsale account.\n        // this is the IF for that action. We won't charge anything, for sure.\n        // this step all so impress that add transaction from owner will be tax ignored.\n        // event in burn process ?? am i right?\n        if(sender == owner()) {\n            return super._transfer(sender, recipient, amount);\n        }\n\n        uint256 sellerTaxAmount = _taxCalculator(sender, amount, _sellerTaxPercentage);\n        uint256 buyerTaxAmount = _taxCalculator(recipient, amount, _buyerTaxPercentage);\n        uint256 tax = sellerTaxAmount.add(buyerTaxAmount);\n\n        require(balanceOf(sender) > amount.add(sellerTaxAmount), \"TDE: you don't have enough tokens to sell\");\n\n        uint256 dividedTax = tax.div(3);\n\n        // tax transfering\n        super._transfer(sender, _projectTaxReceiver, dividedTax);\n        super._transfer(sender, _liquidityTaxReceiver, dividedTax);\n        super._transfer(sender, _marketingTaxReceiver, dividedTax);\n\n        // buyer transfering\n        super._transfer(sender, recipient, amount.sub(buyerTaxAmount));\n    }\n\n    /**\n     * @dev calculate tax\n     *\n     * @param addr who need to check where they won't be charged in tax\n     * @param tokenAmount Number of tokens to be purchased\n     * @param percentage Tax percentage\n     */\n    function _taxCalculator(address addr, uint256 tokenAmount, uint8 percentage) internal view returns (uint256) {\n        // transfer from _dutiesFree accounts won't be charged\n        if (taxIgnoredFor(addr)) {\n            return uint256(0);\n        }\n\n        return Math.min(tokenAmount.mul(percentage).div(100), _maxTransferFee);\n    }\n\n    /**\n     * @dev set seller address \n     * @param addr seller address \n     */\n    function setSaleAddress(address addr) public {\n        _saleAddress = addr;\n        _dutiesFree.push(_saleAddress);\n    }\n\n    /**\n     * @dev detect duties free accounts\n     * @param addr account's address to check\n     */\n    function taxIgnoredFor(address addr) internal view returns (bool) {\n        for(uint256 i; i < _dutiesFree.length; i++) {\n            if(_dutiesFree[i] == addr) {\n                return true;\n            }\n        }\n\n        return false;\n    }\n\n    /**\n     * @dev burn tokens\n     * @param amount Number of tokens to be burned\n     */\n    function burn(uint256 amount) public onlyOwner {\n        _burn(_saleAddress, amount);\n    }\n\n    /**\n     * @dev burn all unsold tokens \n     */\n    function burnUnsold() public onlyOwner {\n        uint256 amountToBurn = balanceOf(_saleAddress);\n\n        _burn(_saleAddress, amountToBurn);\n    }\n\n    /**\n     * @dev Add new token if needed\n     * @param amount Number of tokens to be added\n     */\n    function add(uint256 amount) public onlyOwner {\n        _mint(msg.sender, amount);\n    }\n\n    /**\n     * @dev set buyer tax rate, default 6%. \n     * It must be multipies of 3 to be able to divided equally into Project, Marketing, Liquidity\n     * @param rate Number of tax percentage that applied to buyer \n     */\n    function setBuyerTaxRate(uint8 rate) public onlyOwner {\n        require(rate % 3 == 0, \"rate must be multipies of 3\");\n        require(rate < 100, \"rate can't be greater than or equal 100\");\n\n        _buyerTaxPercentage = rate;\n    }\n\n    /**\n     * @dev set buyer tax rate, default 18%. \n     * It must be multipies of 3 to be able to divided equally into Project, Marketing, Liquidity\n     * @param rate Number of tax percentage that applied to seller \n     */\n    function setSellerTaxRate(uint8 rate) public onlyOwner {\n        require(rate % 3 == 0, \"rate must be multipies of 3\");\n        require(rate < 100, \"rate can't be greater than or equal 100\");\n        _sellerTaxPercentage = rate;\n    }\n\n    /**\n     * @dev we can set it as 0 to allow all numbers of token can be transfer. Default 10,000,000,000.\n     * @param maxTransferFee Number of tax limitation that applied to a transaction \n     */\n    function setMaxTransferFee(uint256 maxTransferFee) public onlyOwner{\n        _maxTransferFee = maxTransferFee;\n    }\n\n    /**\n     * @dev we can set it as 0 to allow all numbers of token can be transfer. Default 2.\n     * @param transactionDecimals Number of tax percentage that applied to seller \n     */\n    function setDecimals(uint8 transactionDecimals) public onlyOwner returns (bool){\n        if(transactionDecimals == 0) {\n            _transactionDecimals = 0;\n            return true;\n        }\n\n        _transactionDecimals = transactionDecimals + 18;\n        return true;\n    }\n\n    /**\n     * @dev Return decimals to user side which need to know if we limit transaction by decimals\n     */\n    function transactionDecimals() public view returns (uint8) {\n        return _transactionDecimals;\n    }\n}\n",
  "sourcePath": "/Users/aaron/github/trigan-tokens/contracts/TriganDaoERC20Token.sol",
  "compiler": {
    "name": "solc",
    "version": "0.6.2+commit.bacdbe57.Emscripten.clang"
  },
  "schemaVersion": "3.4.3",
  "updatedAt": "2022-03-16T17:08:53.564Z",
  "networkType": "ethereum",
  "devdoc": {
    "methods": {
      "add(uint256)": {
        "details": "Add new token if needed",
        "params": {
          "amount": "Number of tokens to be added"
        }
      },
      "allowance(address,address)": {
        "details": "See {IERC20-allowance}."
      },
      "approve(address,uint256)": {
        "details": "See {IERC20-approve}.     * Requirements:     * - `spender` cannot be the zero address."
      },
      "balanceOf(address)": {
        "details": "See {IERC20-balanceOf}."
      },
      "burn(uint256)": {
        "details": "burn tokens",
        "params": {
          "amount": "Number of tokens to be burned"
        }
      },
      "burnUnsold()": {
        "details": "burn all unsold tokens "
      },
      "decimals()": {
        "details": "Returns the number of decimals used to get its user representation. For example, if `decimals` equals `2`, a balance of `505` tokens should be displayed to a user as `5,05` (`505 / 10 ** 2`).     * Tokens usually opt for a value of 18, imitating the relationship between Ether and Wei. This is the value {ERC20} uses, unless {_setupDecimals} is called.     * NOTE: This information is only used for _display_ purposes: it in no way affects any of the arithmetic of the contract, including {IERC20-balanceOf} and {IERC20-transfer}."
      },
      "decreaseAllowance(address,uint256)": {
        "details": "Atomically decreases the allowance granted to `spender` by the caller.     * This is an alternative to {approve} that can be used as a mitigation for problems described in {IERC20-approve}.     * Emits an {Approval} event indicating the updated allowance.     * Requirements:     * - `spender` cannot be the zero address. - `spender` must have allowance for the caller of at least `subtractedValue`."
      },
      "increaseAllowance(address,uint256)": {
        "details": "Atomically increases the allowance granted to `spender` by the caller.     * This is an alternative to {approve} that can be used as a mitigation for problems described in {IERC20-approve}.     * Emits an {Approval} event indicating the updated allowance.     * Requirements:     * - `spender` cannot be the zero address."
      },
      "name()": {
        "details": "Returns the name of the token."
      },
      "owner()": {
        "details": "Returns the address of the current owner."
      },
      "renounceOwnership()": {
        "details": "Leaves the contract without owner. It will not be possible to call `onlyOwner` functions anymore. Can only be called by the current owner.     * NOTE: Renouncing ownership will leave the contract without an owner, thereby removing any functionality that is only available to the owner."
      },
      "setBuyerTaxRate(uint8)": {
        "details": "set buyer tax rate, default 6%.  It must be multipies of 3 to be able to divided equally into Project, Marketing, Liquidity",
        "params": {
          "rate": "Number of tax percentage that applied to buyer "
        }
      },
      "setDecimals(uint8)": {
        "details": "we can set it as 0 to allow all numbers of token can be transfer. Default 2.",
        "params": {
          "transactionDecimals": "Number of tax percentage that applied to seller "
        }
      },
      "setMaxTransferFee(uint256)": {
        "details": "we can set it as 0 to allow all numbers of token can be transfer. Default 10,000,000,000.",
        "params": {
          "maxTransferFee": "Number of tax limitation that applied to a transaction "
        }
      },
      "setSaleAddress(address)": {
        "details": "set seller address ",
        "params": {
          "addr": "seller address "
        }
      },
      "setSellerTaxRate(uint8)": {
        "details": "set buyer tax rate, default 18%.  It must be multipies of 3 to be able to divided equally into Project, Marketing, Liquidity",
        "params": {
          "rate": "Number of tax percentage that applied to seller "
        }
      },
      "symbol()": {
        "details": "Returns the symbol of the token, usually a shorter version of the name."
      },
      "totalSupply()": {
        "details": "See {IERC20-totalSupply}."
      },
      "transactionDecimals()": {
        "details": "Return decimals to user side which need to know if we limit transaction by decimals"
      },
      "transfer(address,uint256)": {
        "details": "See {IERC20-transfer}.     * Requirements:     * - `recipient` cannot be the zero address. - the caller must have a balance of at least `amount`."
      },
      "transferFrom(address,address,uint256)": {
        "details": "See {IERC20-transferFrom}.     * Emits an {Approval} event indicating the updated allowance. This is not required by the EIP. See the note at the beginning of {ERC20}.     * Requirements:     * - `sender` and `recipient` cannot be the zero address. - `sender` must have a balance of at least `amount`. - the caller must have allowance for ``sender``'s tokens of at least `amount`."
      },
      "transferOwnership(address)": {
        "details": "Transfers ownership of the contract to a new account (`newOwner`). Can only be called by the current owner."
      }
    }
  },
  "userdoc": {
    "methods": {}
  }
}